:100000000C9424010C9443010C9460010C94410164
:100010000C9441010C9441010C9441010C94410158
:100020000C9441010C9441010C9441010C94410148
:100030000C9441010C9441010C9441010C94410138
:100040000C9441010C9441010C9418020C94410150
:100050000C9441010C94DC010C9441010C9441017D
:100060000C9441010C944101000000000000005F6D
:1000700000000007000700147F147F14242A7F2A41
:10008000122313086462364955225000050300000C
:10009000001C2241000041221C0014083E081408E4
:1000A000083E0808005030000008080808080060F2
:1000B00060000020100804023E5149453E00427F86
:1000C000400042615149462141454B311814127F8D
:1000D0001027454545393C4A494930017109050316
:1000E0003649494936064949291E0036360000007E
:1000F0005636000008142241001414141414004150
:100100002214080201510906324979413E7E11113B
:10011000117E7F494949363E414141227F4141227A
:100120001C7F494949417F090909013E4149497AF2
:100130007F0808087F00417F41002040413F017F48
:10014000081422417F404040407F020C027F7F0420
:1001500008107F3E4141413E7F090909063E415159
:10016000215E7F09192946464949493101017F012C
:10017000013F4040403F1F2040201F3F4038403F4C
:100180006314081463070870080761514945430068
:100190007F41410002040810200041417F00040219
:1001A0000102044040404040000102040020545439
:1001B00054787F48444438384444442038444448C0
:1001C0007F3854545418087E0901020C5252523E92
:1001D0007F0804047800447D40002040443D007FB7
:1001E0001028440000417F40007C041804787C08FB
:1001F00004047838444444387C1414140808141453
:10020000187C7C080404084854545420043F44409B
:10021000203C4040207C1C2040201C3C4030403C86
:1002200044281028440C5050503C4464544C440022
:100230000836410000007F00000041360800100829
:10024000081008000000000011241FBECFEFD8E006
:10025000DEBFCDBF11E0A0E0B1E0E6E7F7E102C00C
:1002600005900D92AE33B107D9F723E0AEE3B1E0CC
:1002700001C01D92AE33B207E1F70E946A020C94EE
:10028000B90B0C9400001F920F9200905F000F9228
:1002900011248F939F93CF93DF93CDB7DEB783E085
:1002A00090E090933F0180933E010000DF91CF9159
:1002B0009F918F910F9000925F000F901F90189563
:1002C0001F920F9200905F000F9211242F933F9383
:1002D0004F935F936F937F938F939F93AF93BF934E
:1002E000EF93FF93CF93DF93CDB7DEB780914001BB
:1002F000909141010196909341018093400180913A
:1003000040019091410181709078992324F40197E4
:100310008E6F9F6F01960197A9F40E9487070E9434
:10032000070961E086E091E00E943A0A6AE080E015
:100330000E945D0A0E94700A81E090E090933F0164
:1003400080933E01809140019091410181709927F5
:10035000892BE9F488E290E02091020130910301B9
:10036000FC0120830E9487070E94070961E086E163
:1003700091E00E943A0A6AE080E00E945D0A0E94D1
:10038000700A84E090E090933F0180933E0100006A
:10039000DF91CF91FF91EF91BF91AF919F918F919D
:1003A0007F916F915F914F913F912F910F900092AC
:1003B0005F000F901F9018951F920F9200905F00A2
:1003C0000F921124CF93DF93CDB7DEB70000DF91FA
:1003D000CF910F9000925F000F901F901895CF93D0
:1003E000DF9300D0CDB7DEB79A83898385EC90E0A8
:1003F00029813A81232F3327FC01208384EC90E06C
:100400002981FC01208381EC90E028E9FC01208314
:1004100082EC90E02EE0FC01208387E290E02FEF59
:10042000FC01208300000F900F90DF91CF91089581
:100430001F920F9200905F000F9211242F933F9311
:100440008F939F93EF93FF93CF93DF931F92CDB73B
:10045000DEB786EC90E0FC0180818983898181365A
:1004600031F481E090E090933F0180933E018981D7
:10047000823631F482E090E090933F0180933E0118
:100480008981803751F485E290E025E230E0F9017E
:10049000308121E02327FC0120838981853751F4B5
:1004A00085E290E025E230E0F901308121E0232768
:1004B000FC01208300000F90DF91CF91FF91EF911D
:1004C0009F918F913F912F910F9000925F000F901D
:1004D0001F9018950F931F93CF93DF93CDB7DEB77F
:1004E000C455D1090FB6F894DEBF0FBECDBF87E665
:1004F00090E00E94EF018AE290E020E4FC0120837A
:100500008BE290E02FEBFC01208384E290E02FEF60
:10051000FC01208387E290E020EFFC01208388E249
:1005200090E02FE0FC0120838CE790E020E4FC01C8
:1005300020838AE790E02FEEFC0120838BE790E098
:10054000FC0110828EE790E02EE3FC01208384E41E
:1005500090E023EAFC01208385E490E025E0FC01A3
:10056000208389E690E02AE0FC0120838DE390E07F
:1005700023E0FC01208378940E94870787E490E0C1
:1005800028E730E0F90120813181369527953695AD
:1005900027952150FC01208380913E0190913F01DD
:1005A0008230910509F4A7C1833091051CF40197AD
:1005B00049F017C48330910509F40CC3049709F47A
:1005C00007C40FC488E290E0209104013091050136
:1005D000FC01208310923D0310923C037BC080E01D
:1005E00090E0AAE7B4E48D8B9E8BAF8BB88F20E0B0
:1005F00030E04AE755E46D897E898F89988D0E94A5
:10060000180BDC01CB01898F9A8FAB8FBC8F20E058
:1006100030E040E85FE3698D7A8D8B8D9C8D0E9480
:10062000920A88232CF481E090E09E8F8D8F3FC04A
:1006300020E03FEF4FE757E4698D7A8D8B8D9C8DDD
:100640000E94130B18164CF520E030E040E251E414
:100650006D897E898F89988D0E94180BDC01CB01F2
:10066000BC01CD010E94970ADC01CB019E8F8D8FCA
:100670000FC080E991E098A38F8F8F8D98A101978B
:10068000F1F798A38F8F8D8D9E8D01979E8F8D8F03
:100690008D8D9E8D892B69F714C0698D7A8D8B8D18
:1006A0009C8D0E94970ADC01CB019E8F8D8F8D8DD2
:1006B0009E8D9AA389A389A19AA10197F1F79AA384
:1006C00089A380913C0390913D03019690933D0353
:1006D00080933C0380913C0390913D0306970CF47A
:1006E0007ECF88E290E02091020130910301FC016D
:1006F000208380E090E0AAE7B4E489839A83AB8307
:10070000BC8320E030E04AE755E469817A818B813F
:100710009C810E94180BDC01CB018BA39CA3ADA391
:10072000BEA320E030E040E85FE36BA17CA18DA197
:100730009EA10E94920A88232CF481E090E098A761
:100740008FA33FC020E03FEF4FE757E46BA17CA1B0
:100750008DA19EA10E94130B18164CF520E030E0ED
:1007600040E251E469817A818B819C810E94180B5F
:10077000DC01CB01BC01CD010E94970ADC01CB0159
:1007800098A78FA30FC080E991E09AA789A789A5B0
:100790009AA50197F1F79AA789A78FA198A5019724
:1007A00098A78FA38FA198A5892B69F714C06BA177
:1007B0007CA18DA19EA10E94970ADC01CB0198A784
:1007C0008FA38FA198A59CA78BA78BA59CA501970C
:1007D000F1F79CA78BA788E290E02091000130916F
:1007E0000101FC01208310923D0310923C037BC069
:1007F00080E090E0AAE7B4E48D839E83AF83B8875E
:1008000020E030E04AE755E46D817E818F81988554
:100810000E94180BDC01CB018DA79EA7AFA7B8AB38
:1008200020E030E040E85FE36DA57EA58FA598A9A4
:100830000E94920A88232CF481E090E09AAB89AB65
:100840003FC020E03FEF4FE757E46DA57EA58FA5A1
:1008500098A90E94130B18164CF520E030E040E2F6
:1008600051E46D817E818F8198850E94180BDC0197
:10087000CB01BC01CD010E94970ADC01CB019AABF0
:1008800089AB0FC080E991E09CAB8BAB8BA99CA995
:100890000197F1F79CAB8BAB89A99AA901979AAB09
:1008A00089AB89A99AA9892B69F714C06DA57EA582
:1008B0008FA598A90E94970ADC01CB019AAB89AB5E
:1008C00089A99AA99EAB8DAB8DA99EA90197F1F735
:1008D0009EAB8DAB80913C0390913D03019690932C
:1008E0003D0380933C0380913C0390913D0303972B
:1008F0000CF47ECF76C288E290E020910401309122
:100900000501FC01208310923D0310923C0385C039
:1009100080E090E0AAE7B4E489879A87AB87BC8738
:1009200020E030E04AE755E469857A858B859C852F
:100930000E94180BDC01CB018FAB98AFA9AFBAAF07
:1009400020E030E040E85FE36FA978AD89AD9AAD73
:100950000E94920A88232CF481E090E09CAF8BAF38
:100960003FC020E03FEF4FE757E46FA978AD89AD76
:100970009AAD0E94130B18164CF520E030E040E2CF
:1009800051E469857A858B859C850E94180BDC0172
:10099000CB01BC01CD010E94970ADC01CB019CAFC9
:1009A0008BAF0FC080E991E09EAF8DAF8DAD9EAD56
:1009B0000197F1F79EAF8DAF8BAD9CAD01979CAFCA
:1009C0008BAF8BAD9CAD892B69F71EC06FA978AD3D
:1009D00089AD9AAD0E94970ADC01CB019CAF8BAF29
:1009E0002BAD3CADCE01CF96FC0131832083CE01EF
:1009F000CF96FC01808191810197F1F79E01215CE6
:100A00003F4FF9019183808380913C0390913D0396
:100A1000019690933D0380933C0380913C03909119
:100A20003D0303970CF474CF88E290E0209100011D
:100A300030910101FC01208310923D0310923C0390
:100A4000C1C080E090E0AAE7B4E48D879E87AF87BD
:100A5000B88B8E010F5B1F4F20E030E04AE755E472
:100A60006D857E858F8598890E94180BDC01CB01EE
:100A7000F80180839183A283B383CE018F5B9F4F64
:100A800020E030E040E85FE3FC0160817181828119
:100A900093810E94920A88234CF4CE018B5B9F4F76
:100AA00021E030E0FC013183208369C0CE018F5BFF
:100AB0009F4F20E03FEF4FE757E4FC0160817181D9
:100AC000828193810E94130B18160CF046C020E01F
:100AD00030E040E251E46D857E858F8598890E94E3
:100AE000180BDC01CB018E010B5B1F4FBC01CD014C
:100AF0000E94970ADC01CB01F8019183808324C016
:100B0000CE01895B9F4F20E931E0FC0131832083D6
:100B1000CE01895B9F4FFC01808191810197F1F7A4
:100B20009E01295B3F4FF90191838083CE018B5B4E
:100B30009F4F9E012B5B3F4FF90120813181215056
:100B40003109FC0131832083CE018B5B9F4FFC0177
:100B500080819181892BA1F62CC08E010B5B1F4FE8
:100B6000CE018F5B9F4FFC016081718182819381F7
:100B70000E94970ADC01CB01F80191838083CE01AA
:100B8000875B9F4F9E012B5B3F4FF9012081318195
:100B9000FC0131832083CE01875B9F4FFC01808164
:100BA00091810197F1F79E01275B3F4FF9019183F6
:100BB000808380913C0390913D03019690933D0387
:100BC00080933C0380913C0390913D0306970CF485
:100BD00038CF07C10E9487070E94070961E08BE2B6
:100BE00091E00E943A0A6AE080E00E945D0A0E9459
:100BF000700A88E290E02091000130910101FC012F
:100C0000208310923D0310923C03C1C080E090E02D
:100C1000AAE7B4E4898B9A8BAB8BBC8B8E01055B06
:100C20001F4F20E030E04AE755E469897A898B89D3
:100C30009C890E94180BDC01CB01F8018083918311
:100C4000A283B383CE01855B9F4F20E030E040E874
:100C50005FE3FC0160817181828193810E94920A2D
:100C600088234CF4CE01815B9F4F21E030E0FC01F2
:100C70003183208369C0CE01855B9F4F20E03FEF29
:100C80004FE757E4FC0160817181828193810E946A
:100C9000130B18160CF046C020E030E040E251E49F
:100CA00069897A898B899C890E94180BDC01CB01A8
:100CB0008E01015B1F4FBC01CD010E94970ADC0130
:100CC000CB01F8019183808324C0CE018F5A9F4FBE
:100CD00020E931E0FC0131832083CE018F5A9F4F00
:100CE000FC01808191810197F1F79E012F5A3F4FBE
:100CF000F90191838083CE01815B9F4F9E01215B2F
:100D00003F4FF9012081318121503109FC013183AC
:100D10002083CE01815B9F4FFC0180819181892BD3
:100D2000A1F62CC08E01015B1F4FCE01855B9F4F4A
:100D3000FC0160817181828193810E94970ADC01AC
:100D4000CB01F80191838083CE018D5A9F4F9E0184
:100D5000215B3F4FF90120813181FC0131832083E8
:100D6000CE018D5A9F4FFC01808191810197F1F74F
:100D70009E012D5A3F4FF9019183808380913C035E
:100D800090913D03019690933D0380933C038091A5
:100D90003C0390913D0309970CF438CF0E9407095A
:100DA0000E94700A81E090E090933F0180933E01A1
:100DB0000E9487070E94070961E086E091E00E9497
:100DC0003A0A6AE080E00E945D0A0E94700A09C047
:100DD00088E290E02091020130910301FC01208320
:100DE0000000CCCB1F93CF93DF9300D0CDB7DEB7FD
:100DF00089836A8385E290E025E230E0F901208171
:100E00002D7FFC0120838A81882351F085E290E0C8
:100E100025E230E0F90120812860FC01208309C02F
:100E200085E290E025E230E0F9012081277FFC0196
:100E3000208310E03CC08981882F90E0212F30E092
:100E400047E050E0BA01621B730B9B0102C095950D
:100E500087952A95E2F781709927892B51F085E2D1
:100E600090E025E230E0F90120812061FC0120833F
:100E700009C085E290E025E230E0F90120812F7E73
:100E8000FC01208385E290E025E230E0F901208139
:100E90002062FC01208385E290E025E230E0F90148
:100EA00020812F7DFC012083812F11E0180F183045
:100EB00010F285E290E025E230E0F9012081226025
:100EC000FC01208300000F900F90DF91CF911F91C4
:100ED0000895CF93DF931F92CDB7DEB7898360E08B
:100EE00089810E94F20600000F90DF91CF91089552
:100EF000CF93DF931F92CDB7DEB7898361E08981FD
:100F00000E94F20600000F90DF91CF9108950F9399
:100F10001F93CF93DF93CDB7DEB76C970FB6F894DE
:100F2000DEBF0FBECDBF84E290E024E230E0F901E5
:100F300020812260FC01208384E290E024E230E002
:100F4000F90120812460FC01208384E290E024E206
:100F500030E0F90120812860FC01208384E290E0E8
:100F600024E230E0F90120812061FC01208384E249
:100F700090E024E230E0F90120812062FC0120832E
:100F800085E290E025E230E0F90120812460FC0157
:100F9000208385E290E025E230E0F90120812260A3
:100FA000FC01208380E090E0A0E2B1E489839A8391
:100FB000AB83BC8320E030E04AE753E469817A8167
:100FC0008B819C810E94180BDC01CB018B8B9C8B4D
:100FD000AD8BBE8B20E030E040E85FE36B897C891D
:100FE0008D899E890E94920A88232CF481E090E0EA
:100FF000988F8F8B3FC020E03FEF4FE757E46B891E
:101000007C898D899E890E94130B18164CF520E06F
:1010100030E040E251E469817A818B819C810E94B9
:10102000180BDC01CB01BC01CD010E94970ADC0149
:10103000CB01988F8F8B0FC089E190E09A8F898FB9
:10104000898D9A8D0197F1F79A8F898F8F89988D65
:101050000197988F8F8B8F89988D892B69F714C092
:101060006B897C898D899E890E94970ADC01CB015E
:10107000988F8F8B8F89988D9C8F8B8F8B8D9C8D6C
:101080000197F1F79C8F8B8F85E290E025E230E0AD
:10109000F90120812B7FFC01208380E090E0ACE807
:1010A000B2E48D839E83AF83B88720E030E04AE7C7
:1010B00053E46D817E818F8198850E94180BDC013D
:1010C000CB0189879A87AB87BC8720E030E040E876
:1010D0005FE369857A858B859C850E94920A8823C7
:1010E0002CF481E090E09E878D873FC020E03FEFA9
:1010F0004FE757E469857A858B859C850E94130BA1
:1011000018164CF520E030E040E251E46D817E811C
:101110008F8198850E94180BDC01CB01BC01CD01A9
:101120000E94970ADC01CB019E878D870FC089E161
:1011300090E0988B8F878F8598890197F1F7988B2E
:101140008F878D859E8501979E878D878D859E854E
:10115000892B69F714C069857A858B859C850E94E7
:10116000970ADC01CB019E878D878D859E859A8BA2
:10117000898B89899A890197F1F79A8B898B85E206
:1011800090E025E230E0F90120812460FC01208319
:1011900085E290E025E230E0F90120812D7FFC011D
:1011A000208381E20E94690783E10E94690786E04B
:1011B0000E94690782EC0E94690780E20E94690729
:1011C00089E00E94690780E80E94690780E40E9424
:1011D000690700E010E005C080E00E9478070F5F1B
:1011E0001F4F083FF1E01F07B8F388E00E9469072E
:1011F0008CE00E94690700006C960FB6F894DEBF81
:101200000FBECDBFDF91CF911F910F9108950F9326
:101210001F93CF93DF93CDB7DEB780E80E946907B5
:1012200080E40E94690710923A0310923B0300E0A9
:1012300010E007C0C8018E5B9E4FFC0110820F5F5B
:101240001F4F083FF1E01F07A8F30000DF91CF9187
:101250001F910F910895CF93DF9300D000D01F927C
:10126000CDB7DEB78B836C834D838C818695869555
:101270008695882F90E044E5489F9001499F300D66
:1012800011248B81882F90E0820F931F8E5B9E4FDD
:101290009A8389838D818823C9F089819A81FC0191
:1012A0008081482F8C81882F90E09C012770332704
:1012B00081E090E002C0880F991F2A95E2F7842B05
:1012C000282F89819A81FC01208319C089819A8104
:1012D000FC018081482F8C81882F90E09C01277031
:1012E000332781E090E002C0880F991F2A95E2F72A
:1012F00080958423282F89819A81FC012083000016
:101300000F900F900F900F900F90DF91CF91089555
:101310000F931F93CF93DF9300D000D01F92CDB7D0
:10132000DEB78C836D8310E065C000E04EC08C8119
:10133000882F90E09C01205231099D81812F692FD7
:101340000E94AD0B482F50E0C901880F991F880FEC
:10135000991F820F931F840F951F88599F4F9A835F
:10136000898389819A81FC0184918B838B81282FC9
:1013700030E09D81802F692F0E94AD0B882F90E077
:10138000A90102C0559547958A95E2F7CA01817077
:101390009927892B61F080913B03982F900F8091C2
:1013A0003A03810F41E0692F0E942B090BC0809105
:1013B0003B03982F900F80913A03810F40E0692FF3
:1013C0000E942B09802F01E0080F402F50E08D81F3
:1013D000282F30E0C901880F991F880F991F880FA7
:1013E000991F821B930B481759070CF4A0CF812F2C
:1013F00011E0180F412F50E08D81282F30E0C901F6
:10140000880F991F880F991F820F931F481759073C
:101410000CF48BCF20913A039D81892F880F880F80
:10142000890F820F8F5F80933A0380913A0384354E
:1014300070F010923A0320913B039D81892F880F11
:10144000880F880F891B820F8F5F80933B038091E9
:101450003B03803320F010923A0310923B030000CC
:101460000F900F900F900F900F90DF91CF911F91E1
:101470000F910895CF93DF9300D01F92CDB7DEB7C1
:101480009A8389836B830CC089819A819C012F5F29
:101490003F4F3A832983FC0180816B810E94880938
:1014A00089819A81FC018081882371F700000F9067
:1014B0000F900F90DF91CF910895CF93DF9300D0DD
:1014C000CDB7DEB789836A83898180933A038A81A5
:1014D00080933B0300000F900F90DF91CF91089510
:1014E0000F931F93CF93DF93CDB7DEB780E80E94B1
:1014F000690780E40E94690700E010E009C0C801A4
:101500008E5B9E4FFC0180810E9478070F5F1F4F0A
:10151000083FF1E01F0798F30000DF91CF911F9182
:101520000F9108950E94C60A08F481E008950E9470
:10153000F20A88F09F5798F0B92F9927B751B0F069
:10154000E1F0660F771F881F991F1AF0BA95C9F747
:1015500014C0B13091F00E940C0BB1E008950C94CE
:101560000C0B672F782F8827B85F39F0B93FCCF381
:10157000869577956795B395D9F73EF490958095C4
:10158000709561957F4F8F4F9F4F0895990F000879
:10159000550FAA0BE0E8FEEF16161706E807F90745
:1015A000C0F012161306E407F50798F0621B730BE0
:1015B000840B950B39F40A2661F0232B242B252B61
:1015C00021F408950A2609F4A140A6958FEF811D04
:1015D000811D089557FD9058440F551F59F05F3FE6
:1015E00071F04795880F97FB991F61F09F3F79F045
:1015F00087950895121613061406551FF2CF4695C7
:10160000F1DF08C0161617061806991FF1CF869548
:101610007105610508940895E894BB27662777272C
:10162000CB0197F908950E94C60A08F48FEF089538
:101630000E942B0B0C949C0B0E948E0B38F00E9486
:10164000950B20F0952311F00C94850B0C948B0BCB
:1016500011240C940D0B0E94EA0A70F3959FC1F3BC
:10166000950F50E0551F629FF001729FBB27F00D50
:10167000B11D639FAA27F00DB11DAA1F649F6627A5
:10168000B00DA11D661F829F2227B00DA11D621FF4
:10169000739FB00DA11D621F839FA00D611D221FAE
:1016A000749F3327A00D611D231F849F600D211D92
:1016B000822F762F6A2F11249F5750409AF0F1F015
:1016C00088234AF0EE0FFF1FBB1F661F771F881F7E
:1016D00091505040A9F79E3F510580F00C94850B26
:1016E0000C940D0B5F3FE4F3983ED4F38695779509
:1016F0006795B795F795E7959F5FC1F7FE2B880F24
:10170000911D9695879597F9089597F99F6780E8B9
:1017100070E060E008959FEF80EC089500240A9443
:101720001616170618060906089500240A941216BC
:101730001306140605060895092E0394000C11F4EF
:10174000882352F0BB0F40F4BF2B11F460FF04C09C
:101750006F5F7F4F8F4F9F4F0895991B79E004C0B3
:10176000991F961708F0961B881F7A95C9F78095E0
:061770000895F894FFCF7C
:101776001000200040006F7065726163616F206E1B
:101786006F726D616C006465736C696761646F2F5D
:101796006D616E7574656E63616F00706564657307
:0E17A600747265206E612066616978610000D2
:00000001FF
